:080F800028300400000000000D
:100F9000E60B040000000000E60B04000000000067
:100FA000E60B040000000000E60B04000000000057
:100FB000E60B040000000000E60B04000000000047
:100FC000E60B0400000000006C0C040000000000B0
:100FD000E60B040000000000E60B04000000000027
:100FE0008811040000000000E60B0400000000006F
:100FF000E60B040000000000E60B04000000000007
:10100000960E040000000000180C04000000000010
:10101000E60B040000000000E60B040000000000E6
:10102000380B040000000000A20A040000000000C9
:10103000E60B040000000000E60B040000000000C6
:10104000E60B040000000000D413040000000000C0
:10105000E60B040000000000E60B040000000000A6
:10106000C60C040000000000E60B040000000000B5
:10107000E60B040000000000E60B04000000000086
:10108000E60B040000000000E60B04000000000076
:10109000E60B040000000000E60B04000000000066
:1010A000E60B040000000000E60B04000000000056
:1010B000E60B0400000000007E0B040000000000AE
:1010C000E60A040000000000E60B04000000000037
:1010D000E60B040000000000E60B04000000000026
:1010E000E60B040000000000E60B04000000000016
:1010F000E60B040000000000E60B04000000000006
:10110000E60B040000000000E60B040000000000F5
:10111000E60B040000000000E60B040000000000E5
:10112000E60B040000000000E60B040000000000D5
:10113000E60B040000000000E60B040000000000C5
:10114000E60B040000000000E60B040000000000B5
:10115000E60B040000000000E60B040000000000A5
:10116000E60B040000000000E60B04000000000095
:10117000E60B040000000000E60B04000000000085
:10118000E60B040000000000E60B04000000000075
:10119000E60B040000000000E60B04000000000065
:1011A000E60B040000000000E60B04000000000055
:1011B000E60B040000000000C40B04000000000067
:1011C000E60B040000000000E60B04000000000035
:1011D000E60B040000000000E60B04000000000025
:1011E000E60B040000000000E60B04000000000015
:1011F000E60B040000000000E60B04000000000005
:10120000E60B040000000000500D04000000000088
:10121000E60B040000000000E60B040000000000E4
:10122000E60B040000000000E60B040000000000D4
:10123000E60B040000000000E60B040000000000C4
:10124000E60B040000000000E60B040000000000B4
:10125000E60B040000000000E60B040000000000A4
:10126000E60B040000000000E60B04000000000094
:10127000E60B040000000000E60B04000000000084
:10128000E60B040000000000E60B04000000000074
:10129000E60B040000000000E60B04000000000064
:1012A000E60B040000000000E60B04000000000054
:1012B000E60B040000000000E60B04000000000044
:1012C000E60B040000000000E60B04000000000034
:1012D000E60B040000000000E60B04000000000024
:1012E000E60B040000000000E60B04000000000014
:1012F000E60B040000000000E60B04000000000004
:10130000E60B040000000000E60B040000000000F3
:10131000E60B040000000000E60B040000000000E3
:10132000E60B040000000000E60B040000000000D3
:10133000E60B040000000000E60B040000000000C3
:10134000E60B040000000000E60B040000000000B3
:10135000E60B040000000000E60B040000000000A3
:10136000E60B040000000000E60B04000000000093
:10137000E60B0400000000003220EF00839C2000F8
:10138000008041001040BA000160EF00000006003C
:101390000A0D000055500000532000005049000085
:1013A000636F00002053000074720000756300003A
:1013B00074200000546900006D6500003A250000AB
:1013C00030320000783A000025300000327800000A
:1013D0003A25000030320000780A00000D000000BD
:1013E0003220EF006302200083015000050031002D
:1013F000C3A02000008041001040BA000160EF004F
:1014000000000600C0A020008381410080814100CF
:101410001380BA00000006000A0D4C0055506F0002
:101420005320610050496400636F650020487200DA
:10143000563320002E3056000A0D650050437200CE
:10144000422073005665690072736F00696F6E0009
:101450006E3A3A00254325000A0D4300426F000012
:101460006F7400003220EF00E3A3200000804100F1
:101470001040BA000160EF00000006000A0D0000F5
:10148000546900006D6500006420000046530000B0
:101490005344000020460000535300004420000045
:1014A000555000005320000050490000636F0000B9
:1014B000203A0000254C0000552000007365000014
:1014C000636F00006E640000730000003220EF00C4
:1014D00003022000830150000500310023A82000F2
:1014E000008041001040BA000160EF0000000600DB
:1014F00020A8200083814100808141001380BA0030
:10150000000006000A0D6F004261200074743A006A
:101510006572250079207500527520006E6E73008B
:10152000696E65006720630074696F006D656E0009
:1015300020756400706473006174000065640000CD
:10154000207400008580A9004200F8003600F800F1
:101550003200F800801F7800200020000C000900F5
:10156000B01F780005CBBF00164BE3000F00320020
:10157000B45880000960EF0063B02000030042000F
:1015800090427800054078002302AE00FEFF37004D
:1015900024E2B7002562EF00B45880000960EF0034
:1015A000E10242006FC0620016EBB700A00120000C
:1015B0000C0009004F1078004F0078003200F9004D
:1015C0003600F9004200F9000040060087E0A9005B
:1015D0004200F8003600F8003200F800801F780062
:1015E000200020000C000900B01F780017CBBF00BE
:1015F000284BE3000F003200445980000960EF00DF
:1016000083B120000300420090427800054078003A
:101610002302AE00FEFF370024E2B7002562EF0090
:10162000445980000960EF00E10242006FC062008F
:1016300028EBB700A00120000C0009004F10780033
:101640004F0078003200F9003600F9004200F9003E
:10165000004006002202AE00FEFF37002202F80022
:101660004E0BF900301180002222A9000000060074
:101670004200F8003600F8003200F800801F7800C1
:10168000200020000C000900B01F780044598000A1
:101690004822DE00A3B22000830242002A0B02008F
:1016A00000000000804A780029CBBF00B0EBB700F3
:1016B000445980004822DE00E10242006FC062000F
:1016C00029EBB70029CBBF003A4BE30002003A00F8
:1016D000B0CBBF0029EBB7008560A900A0012000B6
:1016E0000C0009004F1078004F0078003200F9001C
:1016F0003600F9004200F900004006004200F80000
:101700003600F8003200F800801F7800200020002A
:101710000C000900B01F7800D45980004822DE0078
:10172000C3B32000830242002A0B02000000000025
:10173000804A78003BCBBF00B0EBB700D4598000A3
:101740004822DE00E10242006FC062003BEBB700BE
:101750003BCBBF004C4BE30002003A00B0CBBF00D4
:101760003BEBB70087C0A900A00120000C000900D6
:101770004F1078004F0078003200F9003600F90071
:101780004200F900004006004200F8003600F80070
:101790003200F800801F7800200020000C000900B3
:1017A000B01F7800000000008BC0A900A00120003D
:1017B0000C0009004F1078004F0078003200F9004B
:1017C0003600F9004200F900004006004200F8002F
:1017D0003600F8003200F800801F7800200020005A
:1017E0000C000900B01F780000000000A0012000DC
:1017F0000C0009004F1078004F0078003200F9000B
:101800003600F9004200F90000400600EC49E20011
:1018100002003200EC69ED0004003700EC49E20000
:1018200002003A0080FF2F009A21B6000000060057
:101830004200F8003600F8003200F800801F7800FF
:10184000200020000C000900B01F7800060C0200E8
:10185000000000005F4BE200020032005F6BED0011
:10186000140037005E6BEC004DCBAF000400370076
:10187000C942A900CD42A8004DCBA8000500370001
:101880004DCBAE0003003700C942A900CD42A900EC
:101890004DCBA9005ECBBF000000FB00040420007C
:1018A0000020E10001003D005E6BEF0040C1B3008D
:1018B0005FEBB7008500A900A00120000C00090023
:1018C0004F1078004F0078003200F9003600F90020
:1018D0004200F900004006004200F8003600F8001F
:1018E0003200F800801F7800200020000C00090062
:1018F000B01F7800A45780004822DE006A24E1006F
:101900000100310014003700C8E2A800CAE2AE00AE
:1019100002003700F56AEF000F003700144F800017
:101920006124E10003003A00F56AEF00E269EF008C
:1019300009003700E4C9AF0003003700DC4AAE00FD
:1019400001003700E4C9A800E4E9AF000100370056
:10195000E4E9A800F56AEF008400A900A0012000D6
:101960000C0009004F1078004F0078003200F90099
:101970003600F9004200F9000040060004ABA80060
:101980000000060004ABA900000006004200F800B9
:101990003600F8003200F800801F78002000200098
:1019A0000C000900B01F7800A45780006A24E100F1
:1019B0000100310029003700DF6AEC00E4568000A6
:1019C0004822DE006224E1001000320040C0B30073
:1019D000F1EAB700DCAAAF0005003700DCAAA800D6
:1019E000046BA800BE0C02000000000006003700D7
:1019F000DCAAAE0004003700DCAAA900046BA90031
:101A0000C20C02000000000012003700E456800003
:101A10004822DE006224E1000E003A00F14AE200B2
:101A200001003200F16AED00F14AE20006003A00DE
:101A300040C0B300F1EAB700046BA800BE0C02007E
:101A40000000000003003700046BA900C20C020074
:101A500000000000F46AEF00000000008660A900AA
:101A6000A00120000C0009004F1078004F00780002
:101A70003200F9003600F9004200F900004006008B
:101A8000C122A900C522A9004D2BA9000000060013
:101A9000D0A2A900D4A2A9004D4BA90000000600C5
:101AA0004200F8003600F8003200F800801F78008D
:101AB000200020000C000900B01F7800E4568000D0
:101AC0004822DE006124E10012003200040E2000F2
:101AD00014028800400D020000000000480D0200C2
:101AE00000000000C102A900C502A9004D6BA900B9
:101AF0005960A9007160A800000009000000000002
:101B0000C8A2A900CCA2A8004D0BA9000060FE004D
:101B1000EEFF37008D00A900A00120000C00090095
:101B20004F1078004F0078003200F9003600F900BD
:101B30004200F9000040060085A0A9004003A9006A
:101B40004023A80085A0AE00FEFF37004003AE0092
:101B5000FEFF37000083BF0000A0B70000000600B2
:101B6000851F7800861F780000012000B00BB400AC
:101B7000104278006624E10028003100B08BBF00DD
:101B80009002780020002000B00BB4000002780022
:101B9000140078000028E100060031002000200039
:101BA000B00BB40080027800B08BBF001002780048
:101BB00084029800B08BBF009002780040002000A3
:101BC000B00BB40000027800140078000500E100BA
:101BD0000600310040002000B00BB4008002780005
:101BE000B08BBF00100278008402980060002000D3
:101BF000B00BB40080027800B08BBF000002780008
:101C000014007800950A400000012000B00BB400D9
:101C100080027800954AE80030003700600020001C
:101C2000B00BB4008002780020002000B00BB4009C
:101C3000000278001400780015027800800A520033
:101C400060002000B00BB40080027800400020004B
:101C5000B00BB40000027800140078001502780080
:101C6000800A520080002000B00BB400800278008F
:101C700060002000B00BB400100378004230DE009A
:101C8000800A780000012000B00BB40080027800C8
:101C9000804AEB0040002000B00BB40080027800C6
:101CA000804AEB0000C0B300904298002000200062
:101CB000B00BB4008002780080CAEB00F0C0B30023
:101CC0009042980060002000B00BB40080027800C1
:101CD000804AEB0000C0B300904298004F037800A8
:101CE000CF02780000000600851F7800DCCAAE0035
:101CF000090037007120A9005920A800D082A9004E
:101D0000D482A9006EE0A80056E0A900C862A9002C
:101D1000CC62A80002003700D082A900D482A800BB
:101D20004D8BA800CF027800000006004200F800AA
:101D30003600F8003200F800801F780020002000F4
:101D40000C000900B01F7800F64AE20001003200E2
:101D5000F66AED00A45780004822DE007024E100FE
:101D600001003100F56AEC00A45780007024E10006
:101D700001003100F46AEC00DC6AAE0001003700BB
:101D8000DF003700604BE20002003200606BED00C4
:101D900004003700604BE20002003A0080C0B3004C
:101DA00060EBB7004823EF009C0D0200000000002C
:101DB000F2A9B700249F2000845D8800B00D0200C6
:101DC0000000000014002000441A88009C0D02004E
:101DD0000000000004AAB70044A02000845D880031
:101DE000B00D02000000000064002000441A8800CA
:101DF0009C0D02000000000016AAB70064A120009C
:101E0000845D8800B00D020000000000045B8000CB
:101E10006824E1000B003A00D062A900D462A80057
:101E200084002000441A88009C0D0200000000007D
:101E30005EAAB700E4A52000845D8800B00D020012
:101E400000000000045B80006724E1000B003A0002
:101E5000D062A900D462A90074002000441A88004E
:101E60009C0D02000000000028AAB70084A22000F8
:101E7000845D8800B00D020000000000045B80005B
:101E80006624E1000B003A00D062A900D462A800E9
:101E900074002000441A88009C0D0200000000001D
:101EA0003AAAB700A4A32000845D8800B00D020008
:101EB00000000000045B80006524E1000D003A0092
:101EC0007180A9005980A800D062A900D462A9003D
:101ED00084002000441A88009C0D020000000000CD
:101EE0004CAAB700C4A42000845D8800B00D020095
:101EF00000000000045B80006424E1000B003A0055
:101F0000D062A900D462A800D4002000441A88003E
:101F10009C0D02000000000070AAB70004A720007A
:101F2000845D8800B00D020000000000045B8000AA
:101F30006324E1000B003A00D062A900D462A9003A
:101F4000D4002000441A88009C0D0200000000000C
:101F500082AAB70024A82000845D8800B00D02008A
:101F600000000000045B80006224E10009003A00E8
:101F700094002000441A88009C0D0200000000001C
:101F800094AAB70044A92000845D8800B00D020027
:101F900000000000045B80006124E10009003A00B9
:101FA000E4002000441A88009C0D0200000000009C
:101FB000A6AAB70064AA2000845D8800B00D0200C4
:101FC00000000000604BE20009003A00B40020006D
:101FD000441A88009C0D020000000000B8AAB70057
:101FE00084AB2000845D8800B00D0200000000007A
:101FF000A4002000441A88009C0D0200000000008C
:10200000CAAAB700A4AC2000845D8800B00D02000D
:1020100000000000DC0AAE0013003700C122A90056
:10202000C522A8004D2BA800D0A2A900D4A2A800C8
:102030004D4BA800C102A900C502A8004D6BA80025
:10204000740E0200000000005960A9007160A80031
:102050000000090000000000C8A2A900CCA2A8004E
:102060004D0BA9002600370054568000A3DD200048
:102070000418E10022003900E45680004822DE0006
:102080006224E1001E003200DC4AAE001C00370072
:10209000C122A900C522A8004D2BA800D0A2A900EA
:1020A000D4A2A8004D4BA800C102A900C502A800F7
:1020B0004D6BA8005960A9007160A80000000900DC
:1020C00000000000C8A2A900CCA2A8004D0BA900E6
:1020D00020C0B300DDEAB700DDCABF001EE9B700CB
:1020E00050C0B300E1EAB700E62AEF00E82AEF00AB
:1020F000843E200064578800F06AEF00000037003B
:102100000000000084E0A900A00120000C000900EC
:102110004F1078004F0078003200F9003600F900C7
:102120004200F90000400600DC6AA800449C200040
:1021300074578800A4002000441A8800C102A90036
:10214000C502A9004D6BA900EE0AE2000F003200A3
:10215000EE2AED009C0D020000000000CAAAB700A4
:102160000060FE0054568000A3DD20000418E1004A
:1021700005003600C102A900C502A8004D6BA800E9
:10218000DC6AA9000E003700EFFF3700CA2AEF0013
:1021900050C0B300F0EAB70010C0B300DDEAB700EA
:1021A000DDCABF001EE9B700E62AEF00E82AEF000B
:1021B000C102A900C502A9004D6BA900DC6AA900F3
:1021C00000000600851F7800DCEAAE000100370041
:1021D00027003700444F80006A24E10001003100ED
:1021E00023003700E869ED0010C0B300B0EBB70082
:1021F000C162A900C562A9009E000900000000009C
:10220000C842A900CC42A8003E0609000000000018
:10221000C842A900CC42A9003E0609000000000007
:10222000B04BE2000A003200C162A900C562A800FA
:102230009E00090000000000C162A900C562A9005B
:102240009E00090000000000B06BED00F4FF3700B5
:10225000C162A900C562A9003E0609000000000095
:10226000C842A900CC42A8003E06090000000000B8
:10227000CF02780000000600851F7800DCEAAE007F
:102280000100370020003700444F8000F303200096
:10229000041CE10001003E001B003700C162A900E0
:1022A000C562A800C842A900CC42A8009E0009004F
:1022B00000000000C842A900CC42A9009E0009000D
:1022C00000000000C162A900C562A8009E000900CC
:1022D00000000000C162A900C562A9009E000900BB
:1022E00000000000C162A900C562A8009E000900AC
:1022F00000000000C842A900CC42A8009E000900CE
:1023000000000000E869EC00CF0278000000060041
:102310004200F8003600F8003200F800801F780014
:10232000200020000C000900B01F7800B16BEF0006
:10233000B16BEC002706A8002726A8002406F800A9
:10234000BA0BF900BACBBF0002EBB700BBCBBF00A2
:10235000B0EBB7002406F800BA0BF900BACBBF0007
:1023600000EBB700BBCBBF0001EBB7002406F800C1
:10237000BA0BF900BACBBF00FEEAB700BBCBBF0077
:10238000FFEAB7002406F800BA0BF900BACBBF0089
:10239000FCEAB700BBCBBF00FDEAB7002706A800E8
:1023A0002726A8002406F800BA0BF900BACBBF0014
:1023B000B8EBB700BBCBBF00B0EBB7002406F8000A
:1023C000BA0BF900BACBBF00B6EBB700BBCBBF006E
:1023D000B7EBB7002406F800BA0BF900BACBBF0080
:1023E000B4EBB700BBCBBF00B5EBB7002406F800D9
:1023F000BA0BF900BACBBF00B2EBB700BBCBBF0042
:10240000B3EBB700845D80004822DE006324E10066
:102410000100390022003700B8CBBF00024BE300B7
:1024200002003200C2FF37001D003700B6CBBF00EC
:10243000004BE30002003200BDFF370018003700F8
:10244000B7CBBF00014BE30002003200B8FF3700FA
:1024500013003700B4CBBF00FE4AE3000200320095
:10246000B3FF37000E003700B5CBBF00FF4AE300D3
:1024700002003200AEFF370009003700B2CBBF00C8
:10248000FC4AE30002003200A9FF370004003700D5
:10249000B3CBBF00FD4AE30001003200A4FF3700C8
:1024A000040BAF0002003700040BA8000300370044
:1024B000040BAE0001003700040BA900144F80008C
:1024C0006124E10018003A00E049E2000400320013
:1024D000144F80006124E10001003A00E069ED0042
:1024E000DFCABF00E04AE30003003A00DC4AA9006B
:1024F000DF6AEF0009003700DFCABF00E04AE300EF
:1025000006003200DC4AA800DF6AEF00EA2AEF008A
:10251000E22AEC004220AF00E42AEC00DFCABF0050
:10252000E0EAB7007A003700544A80004822DE0013
:10253000F4CFB200030032004B49E2000100320048
:102540004B69ED00DFCABF00E04AE30003003A0038
:10255000DC4AA900DF6AEF0009003700DFCABF00CC
:10256000E04AE30006003200DC4AA800DF6AEF0020
:10257000EA2AEF00E22AEC004220AF00E42AEC0055
:10258000DFCABF00E0EAB700DC4AAE000700370050
:10259000E45680004822DE006224E10003003A0095
:1025A000E62AEC004220AF00E82AEC00DC4AAF004B
:1025B00001003700EA2AEC00DC4AAE000E003700CA
:1025C000E45680004822DE006224E1000A003A005E
:1025D000E14AE20002003200E16AED000600370045
:1025E000E14AE20004003A0050C0B300E1EAB7005B
:1025F0009410020000000000F04AE20001003200E6
:10260000F06AED00ED49E20001003200ED69ED00F5
:10261000E349E20003003200DC4AAF00010037006A
:10262000E369ED00E4548000A33620000418E100C3
:102630001F0039004D0BAE001C003700E45680002F
:102640004822DE006224E10018003200C102A90025
:10265000C502A8004D6BA800DC6AA8009456800053
:1026600003E020000418E10006003100444F800020
:102670007024E10002003600E210020000000000B9
:10268000060037005456800003E020000418E100E3
:10269000020039003C11020000000000DC6AA900C1
:1026A000C102A900C502A9004D6BA900180037009E
:1026B0004D0BAE0016003700E45680004822DE00C5
:1026C0006224E10012003200DC6AA800E4548000B9
:1026D000833E20000418E1000C003100444F8000CC
:1026E0007024E10003003600E21002000000000048
:1026F00006003700A4548000833E20000418E10047
:10270000020039003C11020000000000DC6AA90050
:10271000000000008460A900A00120000C00090056
:102720004F1078004F0078003200F9003600F900B1
:102730004200F90000400600F0FF2F000862AE00E2
:10274000FEFF37000922AF00040037000742AE0049
:10275000020037000902AE00F8FF37000822AE0081
:10276000FEFF37000082BF0008C2AF0008C2A90008
:102770000782A80000000600F0FF2F000862AE00EC
:10278000080037000842AE00060037000742AE00DE
:10279000020037000902AE00020037001110880065
:1027A0000782A800000006004200F8003600F8008A
:1027B0003200F800801F7800200020000C00090083
:1027C000B01F780008A2AF0004003700656BEF006F
:1027D0000842AE000100370065EBA80065CBBF00E2
:1027E0000160EF00656BEC0062EBB700145B8000EA
:1027F00003082000041CE10010013900145B800074
:1028000004C8B20003003A0000C2BF0061EBB70089
:102810000400370011C0B3009C1302000000000048
:1028200061EBB700624BE20003003200145B8000F2
:1028300004C8B20003003A0061CBBF0063EBB700ED
:10284000FE003700145B80006124E10003003A00C1
:1028500061CBBF0064EBB700F8003700145B800069
:102860006224E100F5003900145B800004C8B20066
:10287000F2003200145B80004822DE0004CDB2007A
:1028800004003200145B80004822DE0004CBB2005A
:102890005B003A00245B80006624E1002D003E00CE
:1028A00064CBBF00646BEC000080FB00C4AF200071
:1028B0008402400061CBBF00804A78002966A900ED
:1028C0002946A9002706A8002726A800871F780008
:1028D000881F78000500FC0057052000373B880062
:1028E000A80A2000383B880027A6A8004F047800DB
:1028F000CF03780002CBBF00BCEBB700BD6BEF008D
:10290000BC0BF8002406F90000CBBF00BCEBB700FD
:1029100001CBBF00BDEBB700BC0BF8002406F900EB
:10292000FECABF00BCEBB700FFCABF00BDEBB700DB
:10293000BC0BF8002406F900FCCABF00BCEBB700D2
:10294000FDCABF00BDEBB700BC0BF8002406F900C0
:102950000C023700245B80006624E10028003A0066
:102960002966A9002946A9002706A8002726A8004D
:10297000871F7800881F78000500FC00570520009D
:10298000373B8800A80A2000383B880027A6A8000B
:102990004F047800CF03780002CBBF00BCEBB70038
:1029A000BD6BEF00BC0BF8002406F90000CBBF00A4
:1029B000BCEBB70001CBBF00BDEBB700BC0BF80010
:1029C0002406F900FECABF00BCEBB700FFCABF0077
:1029D000BDEBB700BC0BF8002406F900FCCABF0031
:1029E000BCEBB700FDCABF00BDEBB700BC0BF800E5
:1029F0002406F90020C0B300F7EAB700E101370070
:102A0000145B80004822DE0024CDB20004003200B6
:102A1000145B80004822DE0024CBB2000D003A0097
:102A2000245B800073022000041CE10008003900D0
:102A300064CBBF00646BEC000080FB00E4912000DD
:102A40008402400061CBBF00804A7800CD0137008E
:102A50007A003700145B80004822DE0044CDB200CB
:102A600004003200145B80004822DE0044CBB20038
:102A700031003A00245B80006724E1002D003E0015
:102A800064CBBF00646BEC000080FB00C4AF20008F
:102A90008402400061CBBF00804A78002966A9000B
:102AA0002946A9002706A8002726A800871F780026
:102AB000881F78000500FC0057052000373B880080
:102AC000A80A2000383B880027A6A8004F047800F9
:102AD000CF03780002CBBF00BCEBB700BD6BEF00AB
:102AE000BC0BF8002406F90000CBBF00BCEBB7001C
:102AF00001CBBF00BDEBB700BC0BF8002406F9000A
:102B0000FECABF00BCEBB700FFCABF00BDEBB700F9
:102B1000BC0BF8002406F900FCCABF00BCEBB700F0
:102B2000FDCABF00BDEBB700BC0BF8002406F900DE
:102B30009401370041003700145B80004822DE001A
:102B400064CDB20004003200145B80004822DE0035
:102B500064CBB2000D003A00245B800033022000F9
:102B6000041CE1000800390064CBBF00646BEC007A
:102B70000080FB00649420008402400061CBBF0011
:102B8000804A78007F0137002C003700145B8000FA
:102B90004822DE0084CDB20004003200145B8000C5
:102BA0004822DE0084CBB2000E003A00245B800095
:102BB0006524E1000A003E00042BAF000800370046
:102BC00064CBBF00646BEC000080FB00249D200000
:102BD0008402400061CBBF00804A78006901370061
:102BE00016003700145B80004822DE00A4CDB2003E
:102BF00004003200145B80004822DE00A4CBB20047
:102C00000E003A00245B80006524E1000B003E00CA
:102C1000044BAF000900370064CBBF00646BEC00CD
:102C20000080FB00849D20008402400061CBBF0037
:102C3000804A7800044BA80052013700145B8000E2
:102C400003082000041CE10049013E000842AE00D8
:102C500047013700145B800004C8B20002003A004C
:102C600000C2BF0061EBB700145B80004822DE00A9
:102C700014CDB20004003200145B80004822DE0054
:102C800014CBB2002A003A00FE0009000000000048
:102C9000245B80006724E10021003E000802AF00B1
:102CA000FEFF3700245B80000960EF00C3AF200007
:102CB00003004200D45D800000429000D45D880093
:102CC000BA0BF8000202F900245B80000960EF00F3
:102CD000C3AF200003004200904278008540780096
:102CE000BC1302000000000008E2AE00090037003B
:102CF000245B80000960EF00C3AF200003004200A6
:102D0000D45D800000429000D45D8800BA0BF800CA
:102D10000202F900646BEC001A013700040037006E
:102D2000245B80006724E1000100360010013700B9
:102D3000145B80004822DE0034CDB2000400320073
:102D4000145B80004822DE0034CBB2002C003A0035
:102D5000FE00090000000000245B800073022000D8
:102D6000041CE100210039000802AF00FEFF37001B
:102D7000245B80000960EF00E39120000300420023
:102D8000D45D800000429000D45D8800BA0BF8004A
:102D90000202F900245B80000960EF00E39120004B
:102DA000030042009042780085407800BC13020086
:102DB0000000000008E2AE0009003700245B80003C
:102DC0000960EF00E391200003004200D45D800021
:102DD00000429000D45D8800BA0BF8000202F900AE
:102DE000646BEC00E700370005003700245B8000CF
:102DF00073022000041CE10001003100DC003700F8
:102E0000145B80004822DE0054CDB2000400320082
:102E1000145B80004822DE0054CBB2002A003A0046
:102E2000FE00090000000000245B80006724E10030
:102E300021003E000802AF00FEFF3700245B800047
:102E40000960EF00C3AF200003004200D45D8000A2
:102E500000429000D45D8800BA0BF8000202F9002D
:102E6000245B80000960EF00C3AF20000300420034
:102E70009042780085407800BC13020000000000FA
:102E800008E2AE0009003700245B80000960EF0013
:102E9000C3AF200003004200D45D800000429000D8
:102EA000D45D8800BA0BF8000202F900646BEC00F4
:102EB000B400370004003700245B80006724E10081
:102EC00001003600AA003700145B80004822DE00B3
:102ED00074CDB20004003200145B80004822DE0092
:102EE00074CBB2002C003A00FE0009000000000084
:102EF000245B800033022000041CE1002100390023
:102F00000802AF00FEFF3700245B80000960EF007D
:102F10006394200003004200D45D800000429000D2
:102F2000D45D8800BA0BF8000202F900245B80002F
:102F30000960EF0063942000030042009042780093
:102F400085407800BC1302000000000008E2AE00DB
:102F500009003700245B80000960EF0063942000C3
:102F600003004200D45D800000429000D45D8800E0
:102F7000BA0BF8000202F900646BEC008100370024
:102F800005003700245B800033022000041CE100B0
:102F90000100310076003700145B80004822DE001B
:102FA00094CDB20004003200145B80004822DE00A1
:102FB00094CBB2002A003A00FE0009000000000095
:102FC000245B80006524E10021003E000802AF0080
:102FD000FEFF3700245B80000960EF00239D200086
:102FE00003004200D45D800000429000D45D880060
:102FF000BA0BF8000202F900245B80000960EF00C0
:10300000239D200003004200904278008540780014
:10301000BC1302000000000008E2AE000900370007
:10302000245B80000960EF00239D20000300420024
:10303000D45D800000429000D45D8800BA0BF80097
:103040000202F900646BEC004E0037000400370008
:10305000245B80006524E100010036004400370055
:10306000145B80004822DE00B4CDB20004003200C0
:10307000145B80004822DE00B4CBB2002A003A0084
:10308000FE00090000000000245B80006524E100D0
:1030900021003E000802AF00FEFF3700245B8000E5
:1030A0000960EF00839D200004804100D45D800012
:1030B00000429000D45D8800BA0BF8000202F900CB
:1030C000245B80000960EF00839D200004804100A4
:1030D0009042780085407800BC1302000000000098
:1030E00008E2AE0009003700245B80000960EF00B1
:1030F000839D200004804100D45D80000042900048
:10310000D45D8800BA0BF8000202F900646BEC0091
:103110001C00370004003700245B80006524E100B8
:103120000100360012003700145B80004822DE00E8
:10313000D4CDB20004003200145B80004822DE00CF
:10314000D4CBB20001003A0009003700145B8000C4
:103150004822DE00F4CDB20004003200145B80008F
:103160004822DE00F4CBB20001003A000000370034
:103170000802AF00FEFF370080C0EB00BC13020066
:1031800000000000000000000982A8008600A900DD
:10319000A00120000C0009004F1078004F007800BB
:1031A0003200F9003600F9004200F9000040060044
:1031B000851F7800DCEAA800E9C9BF0075EBB700FD
:1031C000D122A900D522A900C8C2A900CCC2A90059
:1031D00010C0B30074EBB700A45B80006824E1006A
:1031E00019003E0075CBBF000160EF0080427800FF
:1031F0000508B2000500E00003003A00C162A90022
:10320000C562A90002003700C162A900C562A8001A
:103210000E000900000000004200A90075EBD60076
:10322000D122A900D522A8000E000900000000004C
:10323000D122A900D522A9000E000900000000003B
:10324000746BEC00E4FF3700C8C2A900CCC2A80030
:103250000E00090000000000C8C2A900CCC2A900ED
:103260000E00090000000000DCEAA900CF0278008F
:1032700000000600E9C9A800D818020000000000FC
:1032800000000600851F7800D44A80004822DE0036
:103290006124E10017003A00046BAE000200370021
:1032A000E909A80003003700046BAF0001003700F4
:1032B000E909A900048BAE0002003700E9A9A800C3
:1032C00003003700048BAF0001003700E9A9A90013
:1032D00004ABAE0002003700E989A8000300370004
:1032E00004ABAF0001003700E989A90004ABA900D5
:1032F000050037005B49E20003003A00E909A90034
:10330000E9A9A900E989A900D81802000000000075
:10331000CF02780000000600E929A800000006009E
:10332000E949A80000000600E969A80000000600BD
:103330008C1902000000000090190200000000003B
:1033400094190200000000000000060001E02F00B8
:1033500083814000F1072000E0804800910188004F
:103360000500A1000500E00003003200331ABA0096
:103370008582E900FCFF3A0000000600F40020000E
:103380000427880004002E00142788007400200001
:1033900024278800F40020000427880004002E0061
:1033A00014278800740020002427880004002800C7
:1033B000141A880034002100241A880004472800C9
:1033C000041A8800000006001021EF009404200079
:1033D0006408880004022800840888001221EF0095
:1033E000042720007408880004032800940888003B
:1033F0001E21EF00840C2000D4088800040228005D
:10340000F40888002021EF00840C2000E4088800E4
:103410000401280004098800000006000000E00004
:103420004220AF00040037007B3E0900000000008E
:103430000000E900FCFF3A00000006004006200002
:103440000E1A02000000000000000600A00F20007D
:103450000E1A02000000000000000600851F780020
:10346000742BEF00726BEF00742BEF00A45B8000F5
:10347000830620000418E1001B0039000060FE00F4
:10348000A35B80000400200025002000A619020094
:103490000000000076ABB70072CBBF00726BEC008F
:1034A0000080FB00A496200084024000768BBF00C1
:1034B0008042980072CBBF00726BEC000080FB0072
:1034C000A49620008402400077CBBF00804A780099
:1034D0007E3E090000000000A45B80006200420004
:1034E00074ABB700E1FF3700CF02780000000600A0
:1034F0006CC9BF000160EF00008AB2000500320015
:103500001080B200080032003080B2000B003200A0
:103510000F0037008406200054108800740020003B
:10352000641088000F0037009406200054108800B3
:1035300024002000641088000A0037008405200061
:1035400054108800740020006410880005003700C3
:103550008406200054108800740020006410880045
:103560000000370000000600851F780074CBBF0004
:1035700075EBB700756BD500A45B80004822DE00B8
:103580008447B2000440780075EBB70075CBBF00EC
:103590000160EF004200DE00A45B80004822DE00F4
:1035A0008402400074CBBF000160EF006F00600038
:1035B00005004000CF02780000000600851F78005B
:1035C000C500200003000900B51F78000202B80002
:1035D0000303B8004200A9008502430060844B0049
:1035E000020BB80085024B0008844B00030BB800A7
:1035F000080443000780B0008701780008017800C4
:1036000085007800040078002501200003000900EF
:10361000CF127800CF02780000000600851F7800E6
:10362000C500200003000900B51F78000900200034
:103630004300AF0019002000891F78000002EB0052
:103640008002EB000003EB008003EB000304690041
:1036500011003200080220004200A9000080D200C0
:103660008180D2000482D2008582D2000328E1004A
:1036700001003A0002A0E1000300390002025200FA
:1036800083825A004200A8000683D2008783D200BA
:103690000804E900F0FF3A0087007800060078008F
:1036A000CF0478000900E000010032000400BE00F1
:1036B0002501200003000900CF127800CF02780016
:1036C00000000600851F7800C500200007000900E3
:1036D000B51F7800802BD5007EABD7008046EB006D
:1036E0007A8BBF00E15B8000020120000300200014
:1036F000DE1A02000000000000017800810178005D
:103700007E8BBF00015C80000E1B020000000000E9
:10371000E1025000608358006130E100050039008B
:1037200002003E006028E10002003900F5FF2F0092
:1037300006002000E180420060014B00010078009B
:10374000820078000201200003002000DE1A02003F
:103750000000000000017800810178007E8BBF002E
:10376000015C80000E1B020000000000E45B800092
:103770000120E1000500390009003E00D45B800013
:103780000020E1000100390005003700D45B800013
:1037900084045000E45B8000048558000400370076
:1037A000D45B800080045200E45B800001055A0075
:1037B0007A8BBF00E15B8000420020000300200004
:1037C000DE1A02000000000000017800810178008C
:1037D0007E8BBF00015C80000E1B02000000000019
:1037E000E1035000608458006140E10005003900A9
:1037F00002003E006038E10002003900F7FF2F00B0
:1038000008002000E180430060014C0001007800C6
:10381000820078004200200003002000DE1A02002F
:103820000000000000017800810178007E8BBF005D
:10383000015C80000E1B020000000000E45B8000C1
:103840000120E1000500390009003E00D45B800042
:103850000020E1000100390005003700D45B800042
:1038600084055000E45B80000486580004003700A3
:10387000D45B800080055200E45B800001065A00A2
:103880000C50E1000500390002003E000B48E10049
:10389000020039001DC0B300870278000400280030
:1038A0000411880004402000141188001A00AF00A1
:1038B0002062A80045118800A5012000070009002A
:1038C000CF127800CF0278000000060021E2A800A5
:1038D0002342A8001E1A02000000000004202C0051
:1038E000B45B880014002000C45B88006E49E200CD
:1038F00003003200744B8000F4CFB2000B003A009A
:10390000D0E2A800D0C2A8007020A9005820A900C9
:103910007040A9005840A90021E2A9002342A90053
:103920001E1A02000000000028003700744B8000BF
:103930006124E10003003A00042C2100B45B8800FC
:10394000782BEF00744B80006224E10003003A0002
:1039500004582200B45B8800782BEF00744B800081
:103960006324E10003003A0004B02400B45B880043
:10397000782BEF00744B80006424E10003003A00D0
:1039800004602900B45B8800782BEF00744B800042
:103990006524E10003003A0004102E00B45B8800A7
:1039A000782BEF00760BF8007A0BF900780BF80013
:1039B0007C0BF90004802400F45B8800841E200046
:1039C000045C8800621B020000000000000006008A
:1039D0004200F800801F780014028000040EB3003B
:1039E00014028800013B880054052000343B880005
:1039F000A40A2000343B880061E7A8000000000012
:103A00000000000061E7AF00FEFF37004F007800C4
:103A10004200F900000006004200F800801F780014
:103A200014028000040EB30014028800013B8800D9
:103A300054052000343B8800A40A2000343B880051
:103A400061E7A80000000000000000004F007800BF
:103A50004200F90000000600811F780001E02F00FD
:103A6000008040008000EB00F1072000E08048006B
:103A700091018800CF0078000200A1000200E00060
:103A8000110032001108BB00811F780001002000E6
:103A9000E81C020000000000CF0078003108BB00E5
:103AA0000080E80001003A003220EC00811F78001D
:103AB000410024000C1D020000000000CF0078002F
:103AC0000281E900EFFF3A0000000600851F780040
:103AD000766BEF00782BEF00C45B8000830620003C
:103AE0000418E1001D0039000060FE0076CBBF0025
:103AF000766BEC000080FB00A496200004004000E0
:103B0000D45B800000429000D45B880076CBBF007D
:103B1000766BEC000080FB00A496200004004000BF
:103B2000801F7800104078007BEBB7004F007800D2
:103B3000788BBF00A1B72000220020002C1D0200BE
:103B4000000000007E3E090000000000C45B800011
:103B50006200420078ABB700DFFF3700CF02780089
:103B60000000060074558000C31220000418E10014
:103B70000400360030C0B30000E0B7001F0037007B
:103B80001E00370074558000A35A20000418E1007D
:103B900008003E0074558000036420000418E10012
:103BA0000400390020C0B30000E0B7001300370064
:103BB000120037007455800003C820000418E1008B
:103BC00008003E0074558000C3DA20000418E100AC
:103BD0000400390010C0B30000E0B7000700370050
:103BE000060037007455800083ED20000418E100C2
:103BF000020031000060EF00000037000000060006
:103C0000255C80004300A900808BBF00115C800010
:103C1000E25B8000F35B80000E1B020000000000EE
:103C20000100E00013003A000000E0001100320043
:103C30000500E0000E003200823E2000030020005C
:103C4000DE1A0200000000000100E00002003A005D
:103C50000000E00062003A004300A900823E20001C
:103C6000030020000E1B02000000000001003700CE
:103C70005B0037004300A900820020000300200001
:103C80000E1B0200000000000100E00013003A00DB
:103C90000000E000110032000500E0000E003200DC
:103CA000823E200003002000DE1A02000000000017
:103CB0000100E00002003A000000E00044003A0089
:103CC0004300A900823E2000030020000E1B0200DA
:103CD00000000000010037003D0037004300A9004C
:103CE00082002000030020000E1B020000000000E4
:103CF0000100E00013003A000000E0001100320073
:103D00000500E0000E003200823E2000030020008B
:103D1000DE1A0200000000000100E00002003A008C
:103D20000000E00026003A004300A900823E200087
:103D3000030020000E1B02000000000001003700FD
:103D40001F0037004300A9004200200003002000AC
:103D50000E1B0200000000000100E00013003A000A
:103D60000000E000110032000500E0000E0032000B
:103D7000823E200003002000DE1A02000000000046
:103D80000100E00002003A000000E00008003A00F4
:103D90004300A900823E2000030020000E1B020009
:103DA0000000000001003700010037000000200083
:103DB0008000780004032800040988000B00370005
:103DC00080007800040228000409880007003700FA
:103DD00080007800040128000409880003003700EF
:103DE0008000780004002800040988008100E900B0
:103DF000E108880000000600780BF8007C0BF90051
:103E00007E2BEF0004402200045C8800440F200059
:103E1000145C8800842BEF00001E020000000000EC
:103E2000000006005349E20001003A00020037009A
:103E3000600020009A21B70000000600851F78006E
:103E4000F64AE20006003A0000C4B300F6EAB70002
:103E5000B21D02000000000072EBB7000100370045
:103E60005400370072CBBF000160EF000080B20049
:103E7000070032001080B2000A0032003080B20029
:103E8000140032001080B2001E00320029003700FA
:103E90005D6BEF005DCBBF005CEBB7005B6BEF00D1
:103EA00029003700D45A80004822DE00C3B5200024
:103EB00083024200728BBF0080429800D45A800077
:103EC0004822DE006124E10001003E005B6BEC0053
:103ED0001D003700D45A80004822DE00C3B5200000
:103EE00083024200728BBF0080429800D45A800047
:103EF0004822DE006124E10001003E005B6BEC0023
:103F000011003700D45A80004822DE00C3B52000DB
:103F100083024200728BBF0080429800D45A800016
:103F20004822DE006124E10001003E005B6BEC00F2
:103F3000050037005D6BEF005DCBBF005CEBB700A9
:103F40005B6BEF0000003700D45A80004822DE008F
:103F50006124E100170036005CCBBF005D4BE3003D
:103F600010003A00C45D2000C45B8800FC1E020003
:103F700000000000A0C0B300ECE9B700121F02006F
:103F8000000000005CCBBF0038E9B7005D6BEF00BC
:103F90005DCBBF005CEBB7005B6BEF00050037004B
:103FA000040037005D6BEF005DCBBF005CEBB7003A
:103FB0005B6BEF00CF027800000006000600FC00FB
:103FC000617620005205200082087800A30A2000B4
:103FD0008308780027A6A80021742000620420002E
:103FE0007305200082487800834878004227A800A3
:103FF0000400280034318800FC22A90027A6A9006B
:10400000026BEF0010C0B30001EBB70010C0B300AB
:1040100000EBB70010C0B300FFEAB700FE6AEF0084
:10402000FD6AEF00FC6AEF002966A9002946A90095
:104030002706A8002726A800871F7800881F780079
:104040000500FC0057052000373B8800A80A200027
:10405000383B880027A6A8004F047800CF037800DB
:1040600002CBBF00BCEBB700BD6BEF00BC0BF80090
:104070002406F90000CBBF00BCEBB70001CBBF00AA
:10408000BDEBB700BC0BF8002406F900FECABF0068
:10409000BCEBB700FFCABF00BDEBB700BC0BF8001C
:1040A0002406F900FCCABF00BCEBB700FDCABF0084
:1040B000BDEBB700BC0BF8002406F90000000600B9
:1040C000851F780005CBBF00164BE30002003200CD
:1040D0000040EB000100370010C0B30081EBB700D7
:1040E000245880004822DE0063B020008302420092
:1040F000808BBF0080429800245880004822DE0058
:10410000E10242006F80620082ABB70016CBBF00B5
:104110000160EF00820BE300FCFF320082CBBF00A6
:1041200005EBB700814BE200010032008580A8005A
:10413000CF02780000000600861F7800871F7800F5
:10414000881F7800891F78000002EB008002EB00D6
:104150000003EB008003EB00030469001100320050
:10416000080220004200A9000080D2008180D20015
:104170000482D2008582D2000328E10001003A00C7
:1041800002A0E100030039000202520083825A00BB
:104190004200A8000683D2008783D2000804E90009
:1041A000F0FF3A008700780006007800CF0478001E
:1041B0004F047800CF0378004F037800000006001A
:1041C000821F7800831F7800851F78004300A900B4
:1041D00032002000030020009C20020000000000AC
:1041E0004200A9000080D2008180D20091018800A5
:1041F000CF027800CF0178004F0178000300E00083
:1042000013003200E3006200050032000000E80005
:104210008100E900070032000000E90008003700D3
:104220000300E0000A0032003059BA008301E900BF
:10423000070032002059BA008301E900040032006F
:1042400030D9BA000000E8008301E900F4FF37002C
:1042500000000600851F7800861F7800871F780001
:10426000881F7800A0C0B30080EBB7006020020078
:1042700000000000D0C0B30080EBB7006020020057
:104280000000000076CBBF000160EF004100DD00C0
:10429000648B2000840240000500780090037800C1
:1042A000851F78000700780001002000020120002F
:1042B00013002000E020020000000000CF02780080
:1042C00010C0BF000040B3004220AF00070037001D
:1042D0008703E800800BF800E8FF9F00800BF900DF
:1042E0006020020000000000EDFF37001E1A0200EF
:1042F000000000004F047800CF0378004F037800DF
:10430000CF02780000000600E929A900000006009D
:10431000E949A90000000600E969A90000000600BB
:10432000842102000000000088210200000000003B
:104330008C2102000000000000000600B4392000BB
:10434000C45B8800FC1E02000000000090C1B300A6
:10435000ECE9B700121F0200000000001E1A020064
:104360000000000074492000C45B8800FC1E0200AD
:104370000000000090C1B300ECE9B700121F02007A
:10438000000000001E1A02000000000094742000CB
:10439000C45B8800FC1E02000000000090C1B30056
:1043A000ECE9B700121F0200000000001E1A020014
:1043B00000000000782BEF00FC1E0200000000004F
:1043C00090C1B300ECE9B70000000600766BEF0087
:1043D000B45B80006424E1000A003E0098190200EA
:1043E000000000001E1A02000000000090210200E0
:1043F000000000001E1A020000000000766BEC00B6
:10440000F3FF37009E2102000000000000000600BC
:10441000155C80004300A9007E8BBF00015C80001A
:10442000D25B8000E35B80000E1B020000000000F6
:104430000100E00013003A000000E000110032002B
:104440000500E0000E003200823E20000300200044
:10445000DE1A0200000000000100E00002003A0045
:104460000000E00062003A004300A900823E200004
:10447000030020000E1B02000000000001003700B6
:104480005B0037004300A9008200200003002000E9
:104490000E1B0200000000000100E00013003A00C3
:1044A0000000E000110032000500E0000E003200C4
:1044B000823E200003002000DE1A020000000000FF
:1044C0000100E00002003A000000E00044003A0071
:1044D0004300A900823E2000030020000E1B0200C2
:1044E00000000000010037003D0037004300A90034
:1044F00082002000030020000E1B020000000000CC
:104500000100E00013003A000000E000110032005A
:104510000500E0000E003200823E20000300200073
:10452000DE1A0200000000000100E00002003A0074
:104530000000E00026003A004300A900823E20006F
:10454000030020000E1B02000000000001003700E5
:104550001F0037004300A900420020000300200094
:104560000E1B0200000000000100E00013003A00F2
:104570000000E000110032000500E0000E003200F3
:10458000823E200003002000DE1A0200000000002E
:104590000100E00002003A000000E00008003A00DC
:1045A0004300A900823E2000030020000E1B0200F1
:1045B000000000000100370001003700000020006B
:1045C0008000780004032800F40888000B003700FE
:1045D0008000780004022800F408880007003700F3
:1045E0008000780004012800F408880003003700E8
:1045F0008000780004002800F40888008100E900A9
:10460000D108880000000600010020001A81BF00C8
:104610000000E8004220AF008100E800D25B80008B
:1046200003002000DE1A020000000000823E20008D
:10463000030020000E1B020000000000AAA1B7002A
:1046400000000600764BE20003003A0080FF2F00D6
:10465000A421B60032003700B45B80007924E10069
:104660000200310090C1B30076EBB700782BEF0069
:1046700076CBBF000160EF00004278000960EF00D8
:104680006A20B800C45B80000020E10017003E00F3
:1046900024032000D45B88007C2BEF000440220020
:1046A000F45B8800440F2000045C8800822BEF003C
:1046B0000822020000000000780BF8007A0BF900D5
:1046C000042302000000000060002000A421B700C5
:1046D0003E1F0900000000000060FE00C45B800077
:1046E0006D00420078ABB700E1FF3700C45B80008B
:1046F000633B20000418E10008003E00843E2000D7
:10470000C45B8800843E2000D45B88000423020040
:104710000000000060002000A421B70004CBA80026
:10472000000006007DC9BF000160EF000080B200FC
:10473000070032001080B200080032003080B20062
:10474000090032001080B2000A0032000C0037006D
:10475000E4972000F44E88000C003700A498200055
:10476000F44E88000900370064992000F44E880058
:1047700006003700249A2000F44E8800030037001A
:10478000E4972000F44E8800000037000000060087
:104790009223020000000000F14E8000229D2000C4
:1047A0000B000900B2587800000006004869EF00CD
:1047B00048C9BF006EE9B700661C02000000000097
:1047C000E621020000000000E0C0B30076EBB70075
:1047D0002A2102000000000050C1B30076EBB700B0
:1047E0002A2102000000000060C1B30076EBB70090
:1047F0002A21020000000000722BEF00945B800071
:10480000032020000418E1000E0039000060FE00C3
:10481000746BEF00756BEF00728BBF0041B7200027
:10482000220020002C1D0200000000007E3E090036
:1048300000000000945B80006200420072ABB70091
:10484000EEFF370070C1B30076EBB7002A210200FB
:10485000000000005C69EF005CC9BF00AFE9B70071
:1048600090C0B30076EBB7002A21020000000000E0
:1048700080C1B30076EBB7002A21020000000000DF
:10488000F0CFB3004BE9B700D0C1B30076EBB7006F
:104890002A21020000000000DE1F020000000000CC
:1048A000D0C2B30076EBB7002A210200000000005E
:1048B0006869EF0068C9BF007CE9B700E0C2B300D7
:1048C00076EBB7002A2102000000000020C3B300ED
:1048D00058E9B70058C9BF0077E9B70058C9BF0009
:1048E00076EBB700222302000000000020C0B300D6
:1048F00057E9B70057C9BF0076E9B700A0C2B300B7
:1049000076EBB7002A2102000000000058C9BF0062
:1049100076EBB700222302000000000050C3B30072
:104920005AE9B7005AC9BF0078E9B700B0C2B3006E
:1049300076EBB7002A210200000000007969EF0041
:1049400079C9BF004CE9B7004E69EF004EC9BF00FE
:1049500075E9B70010C0B300AEE9B700AEC9BF003B
:104960005BE9B700F0C2B30076EBB7002A21020082
:104970000000000010C0B30047E9B70047C9BF00FE
:104980006DE9B70040C0B30076EBB7002A21020002
:104990000000000000CAB3006CE9B700781A0200FA
:1049A0000000000000C3B30076EBB7002A2102002C
:1049B000000000004869EF0048C9BF006EE9B70079
:1049C000661C02000000000043C9BF004DE9B700AB
:1049D0004DC9BF0074E9B70010C0B30053E9B70078
:1049E00053C9BF007AE9B70040C0B3007DE9B70002
:1049F0007D69ED00D369EF00D469EF0010C0B3000A
:104A0000D5E9B70010C0B300D6E9B70090C9B3002C
:104A1000D7E9B700D269EF00D829EF00DA69EF00D3
:104A2000DB69EF00DC69EF00C82302000000000032
:104A30007D49E200EEFF3A0040C1B30076EBB700DB
:104A40002A21020000000000661D02000000000094
:104A5000261A020000000000902102000000000061
:104A6000E0C0B30076EBB7002A210200000000008E
:104A700000000600851F7800DCEAAE000100370068
:104A800023003700C162A900C562A800C842A9007E
:104A9000CC42A8009E00090000000000C842A90006
:104AA000CC42A9009E00090000000000726BEF00DC
:104AB000945B800003042000041CE1000A0036001F
:104AC000C162A900C562A8009E00090000000000A4
:104AD000C162A900C562A9009E0009000000000093
:104AE000726BEC00F2FF3700C162A900C562A8003A
:104AF0009E00090000000000C842A900CC42A800A6
:104B00009E00090000000000F0C3B300E8E9B70010
:104B1000CF02780000000600902102000000000093
:104B20009819020000000000C45D2000C45B8800EA
:104B3000FC1E020000000000A0C0B300ECE9B700BA
:104B4000121F0200000000001E1A020000000000F8
:104B500090210200000000000000060092230200E5
:104B600000000000219D2000F24E80000B00090093
:104B7000B258780000000600851F78008C250200DE
:104B80000000000066C9BF007DE9B700AE25020045
:104B900000000000661D02000000000070C0B300AD
:104BA00076EBB7002A21020000000000344B8000A1
:104BB0000960EF0003032000848241000540780073
:104BC0002302AE00FEFF370024E2B7002562EF00AB
:104BD000CF0278000000060063E0A90082E0A9008F
:104BE00010C3B30076EBB7002A21020000000000DA
:104BF0006FE0A90057E0A800C962A900CD62A90032
:104C0000E0C1B300EDE9B700DC0AA8001E1A0200FB
:104C100000000000ED49E20007003200046BA8002C
:104C200042190200000000000060FE007E3E090004
:104C300000000000F7FF37006FE0A80057E0A90070
:104C4000C962A900CD62A800C962A800C8E2A80094
:104C5000DC2AA800DC0AA900ED69EF0020C3B3003C
:104C600076EBB7002A2102000000000063E0A800F4
:104C70009660A800E4C9A900900120000E1A020065
:104C80000000000000000600DC6AA800449C200030
:104C900074578800A4002000441A8800C102A900AB
:104CA000C502A9004D6BA900EE0AE2001500320012
:104CB000EE2AED000060FE009C0D020000000000E6
:104CC000CAAAB70054568000A3DD20000418E100F2
:104CD0000B003600C102A900C502A8004D6BA80058
:104CE000DC6AA9007E3E090000000000740BA900E8
:104CF0000000EB00740BAF000000E8001400370068
:104D0000E9FF3700CA2AEF0050C0B300F0EAB7004D
:104D100010C0B300DDEAB700DDCABF001EE9B7006E
:104D2000E62AEF00E82AEF00C102A900C502A900A7
:104D30004D6BA900DC6AA9007E3E0900000000005E
:104D4000740BA8000000EB00740BAF000000E8003B
:104D500000000600E9C9A900D81802000000000000
:104D6000000006003A190200000000001E1A0200AE
:104D700000000000AA26020000000000C962A9008D
:104D8000CD62A800C962A800261A02000000000037
:104D9000261A0200000000003A190200000000007C
:104DA00000000600A00020000E1A02000000000013
:104DB0000000060080FF2F00A421B60004CBA9004C
:104DC00000000600851F7800DCCAAE00090037002D
:104DD0007120A8005920A900D082A900D482A8007F
:104DE0006EE0A90056E0A800C862A900CC62A90044
:104DF00002003700D082A900D482A9004D8BA900FF
:104E0000CF02780000000600DC6AA80094002000B1
:104E1000441A88009C0D02000000000094AAB7000C
:104E2000A4002000441A88009C0D0200000000002D
:104E3000CAAAB7005456800043DB20000418E100E2
:104E400004003900A4548000A33620000418E100B7
:104E500002003100740BA80001003700740BA90098
:104E6000DC6AA9000000EB00740BAF000000E80052
:104E700000000600851F7800E4E9AE00020037005C
:104E8000E4E9A9001B0037000060FE004426020090
:104E9000000000006104E10010003A00E4E9A9000C
:104EA000D226020000000000E4E9AE000600370050
:104EB000E4E9A900261A020000000000B226020060
:104EC0000000000030013700DC4AAE00020037006D
:104ED0000060FE002C013700050037004426020068
:104EE000000000000004E00001003A00010037006B
:104EF000E5FF370010C0B30076EBB7002A210200AF
:104F000000000000DA2602000000000090210200EC
:104F100000000000046BA900048BA90004ABA900E9
:104F20004219020000000000C102A900C502A90048
:104F30004D6BA900E22602000000000010C0B30083
:104F4000E2E9B700E169EF0003003700042702003F
:104F500000000000E1E9B7004C49E20003003A001C
:104F6000480D02000000000003003700D0A2A90095
:104F7000D4A2A8004D4BA8001021EF0094042000FB
:104F80006408880004022800840888001221EF00C9
:104F9000042720007408880004032800940888006F
:104FA0001E21EF00840C2000D40888000402280091
:104FB000F40888002021EF00840C2000E408880019
:104FC00004012800040988004023EF003226EF0086
:104FD0005627EF00C102A900C502A9004D6BA90028
:104FE000E226020000000000C0E2A800C142A900C1
:104FF000C542A900C102A900C502A900C122A90099
:10500000C522A800D062A900D462A900C8A2A90044
:10501000CCA2A900C162A900C562A900C8C2A900AA
:10502000CCC2A900D082A900D482A900D102A900D3
:10503000D502A900D122A900D522A900C942A80001
:10504000C962A800C9A2A900CDA2A900C982A9006D
:10505000CD82A900C802A800C822A800D0E2A800FA
:10506000D0C2A800C922A800C902A800C842A8004E
:10507000C862A800C062A800C042A800C9C2A800B7
:10508000C9E2A800D042A800D022A800D002A800FF
:10509000C022A800C002A8009600A9008600A900AE
:1050A0009500A9008500A90094E0A90084E0A9006A
:1050B0009580A9008580A9009560A90003000900DA
:1050C0002682BF008560A9009BC0A9008BC0A900F3
:1050D00063E0A90082E0A90070E0A800044020007D
:1050E000243A88000E00FC0060102000317420007B
:1050F00082072000A30920008248780083487800B6
:1051000043E7B7004800DE0021742000620420005D
:105110007305200082487800834878008048780032
:1051200080FF2F009A21B60080FF2F00A421B60037
:105130004187A8004107A9004023EF00A0C0B300A9
:10514000E0E9B7000060FE0000CAB300F4EAB7006F
:1051500000CAB300F5EAB700E049E2002D003200D2
:105160000040FE00000000005807A9000060FE009B
:10517000E249E20026003A004427EF000E00FC005E
:10518000101020003174200082072000A3092000A5
:10519000824878008348780043E7B7004800DE0083
:1051A00021742000620420007305200082487800EA
:1051B0008348780080487800BE1902000000000093
:1051C00010C0B300E2E9B700DC0AA8000060FE00EE
:1051D000C122A900C522A8004D2BA800D0A2A90079
:1051E000D4A2A8004D4BA800C102A900C502A80086
:1051F0004D6BA800740E020000000000261A020089
:1052000000000000B2260200000000005E0037002F
:10521000D1FF3700DF6AEF00BE1902000000000076
:10522000A4002000441A88009C0D02000000000029
:10523000CAAAB700BE190200000000005456800040
:1052400073CF20000418E1002B00310063E0A800B8
:105250009660A800726BEF00945B80006824E10008
:10526000170031005E6BEC004DCBAF00040037003F
:10527000C942A900CD42A8004DCBA80005003700C7
:105280004DCBAE0003003700C942A900CD42A900B2
:105290004DCBA9005ECBBF000000FB000404200042
:1052A0000020E10001003D005E6BEF00FE030900FD
:1052B000000000000060FE00726BEC00E6FF3700AB
:1052C000C942A900CD42A900FCCABF0073EBB700D8
:1052D00063E0A90082E0A90073CBBF00FC4AE300B1
:1052E00005003A000040FE00000000005807A90039
:1052F0000060FE00F8FF37000060FE00E249E200B7
:1053000002003200DC4AAE00440037004427EF00C0
:105310000E00FC00101020003174200082072000D5
:10532000A3092000824878008348780043E7B7004B
:105330004800DE0021742000620420007305200074
:1053400082487800834878008048780010C0B30015
:10535000E2E9B700DC0AA8000060FE00C122A90053
:10536000C522A8004D2BA800D0A2A900D4A2A80055
:105370004D4BA800C102A900C502A8004D6BA800B2
:10538000740E020000000000E4190200000000009A
:10539000BE19020000000000D062A900D462A8007B
:1053A0008200A8009400A80063E0A8009660A8000E
:1053B0009BC0A8009560A8009580A80094E0A80074
:1053C0009500A8009600A8009D00A8004220EF00CC
:1053D000661C0200000000006FE0A80057E0A90072
:1053E000C962A900CD62A800900120000E1A020037
:1053F000000000009E21020000000000F0C0B30089
:1054000076EBB7002A21020000000000DC0AA800A9
:10541000EA2AEF00E269EF0063003700044F8000E2
:105420004822DE006124E10005003A000427020062
:10543000000000006104E10001003A00C3FE3700F3
:10544000E149E20045003A000427020000000000A4
:105450006104E10041003A004427EF000E00FC0027
:10546000101020003174200082072000A3092000C2
:10547000824878008348780043E7B7004800DE00A0
:105480002174200062042000730520008248780007
:10549000834878008048780010C0B300E2E9B70084
:1054A000DC0AA8000060FE00C122A900C522A800F5
:1054B0004D2BA800D0A2A900D4A2A8004D4BA80053
:1054C000C102A900C502A8004D6BA800740E02001D
:1054D00000000000E4190200000000008200A800A3
:1054E0009400A80063E0A8009660A8009BC0A800F4
:1054F0009560A8009580A80094E0A8009500A800F9
:105500009600A8009D00A8004220EF00661C020043
:10551000000000006FE0A80057E0A900C962A900E0
:10552000CD62A800900120000E1A020000000000C9
:105530009E2102000000000020C0B30076EBB700FF
:105540002A21020000000000DC0AA800EA2AEF007D
:10555000E269EF001400370011003700044F8000AB
:105560004822DE006124E10006003A000427020020
:10557000000000000004E00002003A0073FE370063
:1055800007003700E149E20005003A000427020065
:10559000000000000004E00001003A006BFE37004C
:1055A000E5FE370069FE3700CF02780000000600F4
:1055B000851F7800C500200003000900B51F780092
:1055C000800378008404780004F0A1000400E00067
:1055D00006003A0009F0A70002003700050020008D
:1055E000170037000500200015003700E642520082
:1055F000120039000003200009F0A600000220007C
:10560000801F7800811F7800829FBE00841F780071
:1056100080EBB70060200200000000004F0278001D
:105620004F01BE00CF0078004F0078008502E900EE
:10563000F3FF3B0055002000010037008402780092
:105640006400200005E0A00009F0A70005F0A0001C
:1056500008712200110009008883D8006E2B020017
:105660000000000081037800883E2000110009003E
:105670008883D8006E2B02000000000081037800B0
:1056800048062000110009008883D8006E2B020014
:105690000000000081037800A8002000110009002C
:1056A0008883D8006E2B0200000000000003200059
:1056B00000C04000811F7800829FBE00841F7800D8
:1056C00080EBB70060200200000000004F0278006D
:1056D0004F01BE00CF0078001D00370006032000F8
:1056E0000000E0000E003A0005E0A6000D003700C3
:1056F0000402E9000524E100020032004200AF008C
:10570000000006000000E00005003A0005E0A600E9
:105710000400370005F0A600060220000100370053
:1057200005E0A10000404300811F7800821F78003F
:10573000841F780080EBB7006020020000000000AA
:105740004F0278004F017800CF007800000006007B
:105750002501200003000900CF127800CF02780055
:105760000000060094742000C45B8800FC1E020048
:105770000000000090C1B300ECE9B700121F020066
:10578000000000001E1A0200000000007449200002
:10579000C45B8800FC1E02000000000090C1B30042
:1057A000ECE9B700121F0200000000001E1A020000
:1057B00000000000B4392000C45B8800FC1E020019
:1057C0000000000090C1B300ECE9B700121F020016
:1057D000000000001E1A020000000000782BEF00FD
:1057E000FC1E02000000000090C1B300ECE9B7000D
:1057F000000006005960A9007160A90000000900BE
:1058000000000000C8A2A800C8A2A800720BA9004E
:10581000CAA2AF00720BA8004D0BA8000000060042
:10582000800178000180FD0054C0B3000360ED00EA
:105830000860ED001900320003007800C419DD0093
:105840004C00DE00F000B20004003A006124E100E8
:105850000200320003E0AE00F4FF37000003B000A6
:10586000A20320000200E100010039000240B40060
:10587000811F7800831F7800841F780080EBB700B9
:1058800060200200000000004F027800CF01780085
:10589000CF00780003E0A800E4FF37000000060016
:1058A00001002000010078000160EF00BC09020047
:1058B000000000008100E800811F780080EBB70045
:1058C0006020020000000000CF007800600120008E
:1058D0000008E600F3FF3700FECABF000160EF00DA
:1058E00021702200102C020000000000A0C3B300B1
:1058F00080EBB7006020020000000000FDCABF007E
:105900000160EF0021702200102C02000000000056
:10591000A0C3B30080EBB7006020020000000000CD
:10592000FCCABF000160EF0021702200102C0200B1
:1059300000000000A0C0B30080EBB70060200200B0
:1059400000000000D0C0B30080EBB7006020020070
:105950000000000000000600851F7800DCCAAE00D1
:105960003F003700E44A8000A4CAB2003C003A007D
:10597000DC6AA800C122A900C522A900C122A80092
:105980001E00090000000000C122A8004DABA900C4
:10599000C322AF004DABA800C122A900C522A800B8
:1059A000DC6AA9004DABAF002D003700E456800043
:1059B0004822DE006124E10029003200B22B0200FF
:1059C0000000000040C2B30076EBB7002A210200BD
:1059D00000000000EC25020000000000C122A90028
:1059E000C522A900C122A800C122A900C522A90080
:1059F000C122A800480D020000000000C102A90059
:105A0000C502A9004D6BA9005960A9007160A800EA
:105A10000000090000000000C8A2A900CCA2A80054
:105A20004D0BA9000060FE00A00020000E1A02002D
:105A300000000000ECFF37005960A9007160A80069
:105A40000000090000000000C8A2A900CCA2A80024
:105A50004D0BA900B2260200000000000000FE006D
:105A6000CF02780000000600E9E9A800D81802007B
:105A70000000000004EBA80000000600E9E9A9000E
:105A8000D81802000000000004EBA9000000060086
:105A9000851F7800C500200003000900B51F7800AD
:105AA000090020004300AF0019002000891F780082
:105AB0008384680001F0A600030037008180EA00BB
:105AC0000000EA00E080480003F0A6000300370071
:105AD0008381EA000201EA00E081490003026900D3
:105AE000150032000002EB008002EB000003EB0027
:105AF0008003EB00080220004200A9000080D200D1
:105B00008180D2000482D2008582D2000328E10085
:105B100001003A0002A0E100030039000202520035
:105B200083825A004200A8000683D2008783D200F5
:105B30000804E900F0FF3A0009F0A600070037006A
:105B40000600EA000100320002003A008700EA0085
:105B5000050037008780EA000300370087007800DF
:105B60000600780000003700CF0478000900E0004C
:105B7000010032000400BE002501200003000900DE
:105B8000CF127800CF02780000000600851F780051
:105B9000861F7800C0002000720BB40080027800DD
:105BA00080002000720BB40000027800140078001E
:105BB000950A400004002000D50A4A00C0002000D9
:105BC000720BB400A4002000301A7800301A78005C
:105BD0004300A90005007800860078000204200038
:105BE00003002000482D02000000000074ABB70045
:105BF000C0002000720BB40080027800748BBF00DC
:105C00008000EB0000F0A7008080EB001502780018
:105C1000800A520055027800810A5A00A000200034
:105C2000720BB40080027800748BBF0000F0A600F5
:105C30000300370004002000A35B80000300520033
:105C4000800A78004F037800CF0278000000060039
:105C5000851F7800945B8000E50242000502780011
:105C6000A3002000110009000382D80072ABB70026
:105C7000945B80006A20B80072ABB700720BF8002A
:105C80000000F900CF027800000006007CABEF00B6
:105C9000760BF800780BF9007A2BEF007C0BE20012
:105CA0002E0032007C2BED00C45B8000F3702200DC
:105CB0000418E1000200310000A0EF0029003700C5
:105CC000C45B8000833E20000418E10008003E0011
:105CD000C45B8000843EB100C45B880004002100E6
:105CE000D35B8000048041007AABB7001A00370014
:105CF000C45B8000430620000418E10008003E0059
:105D0000C45B80004406B100C45B8800041020001E
:105D1000D35B8000048041007AABB7000E003700EF
:105D2000C45B80006A20E10007003900C45B80008A
:105D30006A00520078ABB700D45B8000700042006C
:105D40007AABB700040037007A8BBF00780BB40041
:105D50007AABB70001003700D0FF37007A0BF800AC
:105D60000000F90000000600851F7800F80AF8001E
:105D7000720BF900282E020000000000F8AAB700FC
:105D8000FA2AEF00F80AF800720BF900282E020038
:105D90000000000080027800B55B8800462E0200FB
:105DA0000000000000A0B700CF027800000006004D
:105DB000548BBF009C0AB40054ABB700B45A8000A7
:105DC00060004A0056ABB700540020000960EF00A5
:105DD000548BBF00B15A80000402E8000402E900BD
:105DE000030032008100D1000080D300FBFF3700A8
:105DF00072ABB700728BBF008000EB0000F0A70011
:105E00008080EB00A45A80000000520054ABB70021
:105E1000B45A800001005A0056ABB700728BBF0025
:105E200000F0A6000300370004002000935B800010
:105E30000300520058ABB700580BF800520BF900A2
:105E400000000600851F7800861F7800C000200033
:105E5000720BB4008002780015007800520BB40079
:105E6000800A780055027800E00A4A00C00020004D
:105E7000720BB400A4002000301A7800301A7800A9
:105E80004300A90005007800860078000200240085
:105E900003002000482D02000000000074ABB70092
:105EA000C0002000720BB40080027800748BBF0029
:105EB0008000EB0000F0A7008080EB001502780066
:105EC000800A520055027800810A5A00A000200082
:105ED000720BB40080027800748BBF0000F0A60043
:105EE0000300370004002000A35B80000300520081
:105EF000800A7800528BBF00F45480000020E1003B
:105F00000A003600F4548000935A80008302520045
:105F1000840C20000520E10004003100D45A8000E8
:105F2000F4CFB200010032005A6BEC00528BBF007C
:105F3000E45480000020E1000A003600945A8000FA
:105F4000F354800083025200840C20000520E100FD
:105F500004003100D45A80006124E10001003600C1
:105F60005A6BED00D45A800003082000041CE100A5
:105F700002003E00520BF8009E0AF900800020004B
:105F8000720BB400900278000500E00006003A00B1
:105F9000A0002000720BB40080027800804AEB0061
:105FA00000C0B300904298004F037800CF02780001
:105FB00000000600F0CFB30075EBB70072CBBF0056
:105FC00073EBB700746BEF00754BE2001200320008
:105FD000756BED00945B80004822DE006A24E100CE
:105FE00008003900945B80004822DE006A405200BD
:105FF00073EBB700A45B80007040420074EBB70005
:106000000400370074CBBF00734BB40074EBB700CF
:1060100001003700ECFF370074CBBF0000E0B70091
:10602000000006000200E000080032003118BB004A
:10603000811F780041002400E81C020000000000DD
:10604000CF0078000281E900F6FF3700000006006B
:106050000FD42000F0FF200020A0B70000000000B7
:106060004044240020058800404426003005880074
:1060700050442400400588007044250060058800D5
:10608000404424009005880081E0A90000802000A1
:10609000E13F2000018009000018EB004427EF00D9
:1060A000056BEF00166BEF00176BEF00286BEF002E
:1060B000296BEF003A6BEF003B6BEF004C6BEF008E
:1060C0004E2BEF000400280004118800044020003B
:1060D000141188002062A8002402200044118800C6
:1060E000CD22A90007E2A80007A2A80006C2A800C6
:1060F0000762A90006E2A8000702A8000722A8007C
:106100000742A90084062000541088007400200073
:10611000641088002021EF00F4E72300E4088800E1
:10612000040028000409880004F42100040D8800FC
:1061300004C02000D40C8800F4002000E40C880087
:106140001E21EF00F4E72300D40888000400280093
:10615000F408880004F42100540D88000480200015
:10616000240D8800E4002000340D8800502BEF003F
:1061700030C0B30065EBB700E024EF00E224EF008D
:10618000E424EF006E003700C006080000000000A5
:106190004BF03F005C0A5800F63B8F0000C03C000B
:1061A0008B28AC003CBEF6003FD2D50044168C00D4
:1061B00015D7BF0069005A002E1B8700993F9A002F
:1061C0005FAD4B0091E40100C05D11002F92E4002F
:1061D00081FB3F0038DA9100809DC500E0BF6F0071
:1061E00012C0B400C309AB003F6BC100034EC10035
:1061F000B545BF00F7400500FF005A00EF3FF30030
:10620000A3E2F700D7FF010040C0B400FF053C0047
:1062100058FC3F003BD3C000B5BA8C00E23F3900C8
:10622000D3C73D004179B2003F870D003C50D000FC
:10623000AF623F00304B8D00A282AA0004400900EB
:10624000A0404A000576030040EC9E003788A60077
:1062500044F03F008F128D00299A5B00C73F0E006B
:10626000E0807C00A1D886003F294B00FB95C2004E
:10627000371A3F0080680800B6427E00687E7A00C8
:106280007EAD7E00AF7EC9007EED7E000F7F2800D0
:106290007F2F7F005A7F88007F8D7F00927F97003D
:1062A0007FC47F00F97F1E00802F8000328036007F
:1062B000804F80007580840080928000A580AD00B2
:1062C00080B28000C1805400817181008681980075
:1062D00081AD8100D881000082288200398255007A
:1062E000827182008B829300829A8200A382C30013
:1062F000821483002283360083688300B583CE0036
:1063000083E78300000000000201E8006110E10063
:1063100004003A009101BA003182BA0006C0BF0001
:10632000000006006210E10002003A0007C0BF0052
:106330000000060008C0BF000001EB0000000600DE
:10634000060020000000200090018800400C23007F
:10635000800078000001EB008431020000000000A2
:106360000BE0B70084310200000000000AE0B70033
:106370000500E0001900320005F0A6000700370014
:1063800084310200000000000DE0B70084310200FB
:10639000000000000CE0B70005F0A10005E0A60039
:1063A0000800370005E0A1008502E9008431020001
:1063B000000000008043780005800900075B78003A
:1063C000E5FF37008431020000000000005B780028
:1063D0008502E900FBFF3A00DFFF3700C122A80079
:1063E00070E0A8006FE0A80057E0A900C962A9000A
:1063F000CD62A80040A7A80040A7A8003A19020053
:1064000000000000D082A800C0E2A800C942A80095
:10641000C962A800C802A800C822A800D0E2A8004B
:10642000D0C2A800C922A800C902A800046BA80015
:10643000048BA80004ABA800421902000000000071
:106440009819020000000000030020000400200052
:1064500025002000A6190200000000006AABB7006A
:106460006ACBBF0042E9B7006BCBBF0043E9B7007E
:1064700042C9BF000160EF001084B2000500320085
:106480003080B200050032001080B20005003200FA
:1064900006003700DCCAA90006003700DCCAA800E5
:1064A00004003700DCCAA80002003700DCCAA900DB
:1064B00000003700740E0200000000003A190200CC
:1064C00000000000C962A900CD62A800C962A8004E
:1064D000C142A900C542A9003226EF005627EF00AD
:1064E00041E2A90040C2A9004222EF0041E2A80017
:1064F000BE19020000000000E419020000000000C4
:106500000421EF00217420006204200073052000A4
:1065100082487800834878004227A80004082000B9
:106520001408880024032C0024088800D0A2A900A5
:10653000D4A2A8004D4BA8001E1A020000000000C3
:10654000D062A900D462A800D4002000441A8800B8
:106550007E3E0900000000009C0D020000000000CB
:1065600070AAB70084538000136D20000418E10066
:106570000100310020003700A4002000441A8800E8
:106580009C0D020000000000CAAAB700545680000B
:1065900073CF20000418E10017003600400D020000
:1065A00000000000480D020000000000C102A90028
:1065B000C502A9004D6BA9005960A9007160A8002F
:1065C0000000090000000000C8A2A900CCA2A80099
:1065D0004D0BA9000060FE00261A0200000000001A
:1065E000A4002000441A88009C0D02000000000056
:1065F000CAAAB700E5FF37007240A800C122A9006F
:10660000C522A8004D2BA800740E02000000000057
:106610002E1A020000000000900120000E1A020055
:1066200000000000781A0200000000006DC9BF00E1
:1066300047E9B7006EC9BF0048E9B70079C9BF0094
:106640004CE9B70075C9BF004EE9B70074C9BF0077
:106650004DE9B700AEC9BF005BE9B7007AC9BF001A
:1066600053E9B70077C9BF0058E9B70076C9BF0042
:1066700057E9B70078C9BF005AE9B700AFC9BF00F2
:106680005CE9B7005AC9BF0074EBB700B41A020046
:1066900000000000E7E9B700F0CFB3004BE9B70016
:1066A000DC0AA800F56AEF00F46AEF000600FC00BF
:1066B000617620005205200082087800A30A20009D
:1066C0008308780027A6A800217420006204200017
:1066D0007305200082487800834878004227A8008C
:1066E0000400280034318800FC22A90027A6A90054
:1066F00004002800B43A880010C0B300EBE9B700EA
:10670000EBC9BF00EAE9B7008200A8009400A80026
:1067100063E0A8009660A8009560A8009580A80096
:106720009460A80094E0A8009500A8009600A80036
:106730009D00A8004220EF00661C0200000000003F
:10674000A44B8000F4CFB20006003A0043C9BF005A
:106750004DE9B7004DC9BF0074E9B700661D0200DE
:1067600000000000666BEF00345B8000030820002F
:10677000041CE100060036001E1F0200000000009D
:106780007E3E090000000000666BEC00F6FF37005B
:10679000C44980006224E1000E003A00DE1F0200BE
:1067A00000000000E0C0B30076EBB7002A21020031
:1067B00000000000D0C1B30076EBB7002A21020030
:1067C00000000000E0C0B30076EBB7002A21020011
:1067D00000000000C44980006324E10002003A0088
:1067E000D6230200000000003A250200000000004D
:1067F000F76AEF00C122A900C522A8004D2BA8000E
:10680000D0A2A900D4A2A8004D4BA800C102A900A3
:10681000C502A9004D6BA90010C0B300DDEAB700A6
:10682000DDCABF001EE9B700E62AEF00E82AEF0044
:1068300050C0B300F0EAB700CA2AEF00C102A900B5
:10684000C502A9004D6BA900DC6AA9005960A90026
:106850007160A8000000090000000000C8A2A900A3
:10686000CCA2A8004D0BA9001E1A020000000000D7
:10687000E4A9A900E4C9A900E4E9A900C0C1B300E2
:1068800076EBB7002A21020000000000766BEF00D3
:106890002A21020000000000010020000100780011
:1068A0000160EF00F0090200000000008100E80034
:1068B000811F780080EBB70060200200000000001C
:1068C000CF007800D00120000008E600F3FF370079
:1068D00042C9BF0080EBB70060200200000000004A
:1068E00001022000010078000160EF00F0090200C1
:1068F000000000008100E800811F780080EBB700F5
:106900006020020000000000CF007800400320005B
:106910000008E600F3FF370043C9BF0080EBB70073
:106920006020020000000000E0C1B30076EBB70079
:106930002A21020000000000644A80004822DE0094
:1069400064C4B20004003200644A80004822DE00C1
:1069500014C5B20005003A0090C1B30076EBB70051
:106960002A2102000000000004003700A0C1B3008B
:1069700076EBB7002A21020000000000B0C1B3008E
:1069800076EBB7002A2102000000000030CEB300F1
:1069900044E9B700E269EF00EA2AEF009021020023
:1069A00000000000046BA900048BA90004ABA9003F
:1069B00042190200000000003A2502000000000019
:1069C0007DC9BF0066E9B700BC25020000000000D9
:1069D000AE25020000000000B4202000C45B880047
:1069E000FC1E02000000000090C1B300ECE9B700FB
:1069F000121F0200000000001E1A0200000000002A
:106A000034292000C45B8800FC1E02000000000046
:106A100090C1B300ECE9B700121F020000000000B3
:106A20001E1A020000000000845C2000C45B880085
:106A3000FC1E02000000000090C1B300ECE9B700AA
:106A4000121F0200000000001E1A020000000000D9
:106A5000B4392000C45B8800FC1E02000000000066
